{
  "_format": "hh-sol-artifact-1",
  "contractName": "Domains",
  "sourceName": "contracts/Domains.sol",
  "abi": [
    {
      "inputs": [
        {
          "internalType": "string",
          "name": "_tld",
          "type": "string"
        }
      ],
      "stateMutability": "payable",
      "type": "constructor"
    },
    {
      "inputs": [],
      "name": "AlreadyRegistered",
      "type": "error"
    },
    {
      "inputs": [
        {
          "internalType": "string",
          "name": "name",
          "type": "string"
        }
      ],
      "name": "InvalidName",
      "type": "error"
    },
    {
      "inputs": [],
      "name": "Unauthorized",
      "type": "error"
    },
    {
      "anonymous": false,
      "inputs": [
        {
          "indexed": true,
          "internalType": "address",
          "name": "owner",
          "type": "address"
        },
        {
          "indexed": true,
          "internalType": "address",
          "name": "approved",
          "type": "address"
        },
        {
          "indexed": true,
          "internalType": "uint256",
          "name": "tokenId",
          "type": "uint256"
        }
      ],
      "name": "Approval",
      "type": "event"
    },
    {
      "anonymous": false,
      "inputs": [
        {
          "indexed": true,
          "internalType": "address",
          "name": "owner",
          "type": "address"
        },
        {
          "indexed": true,
          "internalType": "address",
          "name": "operator",
          "type": "address"
        },
        {
          "indexed": false,
          "internalType": "bool",
          "name": "approved",
          "type": "bool"
        }
      ],
      "name": "ApprovalForAll",
      "type": "event"
    },
    {
      "anonymous": false,
      "inputs": [
        {
          "indexed": true,
          "internalType": "address",
          "name": "from",
          "type": "address"
        },
        {
          "indexed": true,
          "internalType": "address",
          "name": "to",
          "type": "address"
        },
        {
          "indexed": true,
          "internalType": "uint256",
          "name": "tokenId",
          "type": "uint256"
        }
      ],
      "name": "Transfer",
      "type": "event"
    },
    {
      "inputs": [
        {
          "internalType": "address",
          "name": "to",
          "type": "address"
        },
        {
          "internalType": "uint256",
          "name": "tokenId",
          "type": "uint256"
        }
      ],
      "name": "approve",
      "outputs": [],
      "stateMutability": "nonpayable",
      "type": "function"
    },
    {
      "inputs": [
        {
          "internalType": "address",
          "name": "owner",
          "type": "address"
        }
      ],
      "name": "balanceOf",
      "outputs": [
        {
          "internalType": "uint256",
          "name": "",
          "type": "uint256"
        }
      ],
      "stateMutability": "view",
      "type": "function"
    },
    {
      "inputs": [
        {
          "internalType": "string",
          "name": "",
          "type": "string"
        }
      ],
      "name": "domains",
      "outputs": [
        {
          "internalType": "address",
          "name": "",
          "type": "address"
        }
      ],
      "stateMutability": "view",
      "type": "function"
    },
    {
      "inputs": [
        {
          "internalType": "string",
          "name": "",
          "type": "string"
        }
      ],
      "name": "emails",
      "outputs": [
        {
          "internalType": "string",
          "name": "",
          "type": "string"
        }
      ],
      "stateMutability": "view",
      "type": "function"
    },
    {
      "inputs": [
        {
          "internalType": "string",
          "name": "name",
          "type": "string"
        }
      ],
      "name": "getAddress",
      "outputs": [
        {
          "internalType": "address",
          "name": "",
          "type": "address"
        }
      ],
      "stateMutability": "view",
      "type": "function"
    },
    {
      "inputs": [],
      "name": "getAllNames",
      "outputs": [
        {
          "internalType": "string[]",
          "name": "",
          "type": "string[]"
        }
      ],
      "stateMutability": "view",
      "type": "function"
    },
    {
      "inputs": [
        {
          "internalType": "uint256",
          "name": "tokenId",
          "type": "uint256"
        }
      ],
      "name": "getApproved",
      "outputs": [
        {
          "internalType": "address",
          "name": "",
          "type": "address"
        }
      ],
      "stateMutability": "view",
      "type": "function"
    },
    {
      "inputs": [
        {
          "internalType": "string",
          "name": "name",
          "type": "string"
        }
      ],
      "name": "getEmailAddress",
      "outputs": [
        {
          "internalType": "string",
          "name": "",
          "type": "string"
        }
      ],
      "stateMutability": "view",
      "type": "function"
    },
    {
      "inputs": [
        {
          "internalType": "string",
          "name": "name",
          "type": "string"
        }
      ],
      "name": "getRecord",
      "outputs": [
        {
          "internalType": "string",
          "name": "",
          "type": "string"
        }
      ],
      "stateMutability": "view",
      "type": "function"
    },
    {
      "inputs": [
        {
          "internalType": "address",
          "name": "owner",
          "type": "address"
        },
        {
          "internalType": "address",
          "name": "operator",
          "type": "address"
        }
      ],
      "name": "isApprovedForAll",
      "outputs": [
        {
          "internalType": "bool",
          "name": "",
          "type": "bool"
        }
      ],
      "stateMutability": "view",
      "type": "function"
    },
    {
      "inputs": [],
      "name": "isOwner",
      "outputs": [
        {
          "internalType": "bool",
          "name": "",
          "type": "bool"
        }
      ],
      "stateMutability": "view",
      "type": "function"
    },
    {
      "inputs": [],
      "name": "name",
      "outputs": [
        {
          "internalType": "string",
          "name": "",
          "type": "string"
        }
      ],
      "stateMutability": "view",
      "type": "function"
    },
    {
      "inputs": [
        {
          "internalType": "uint256",
          "name": "",
          "type": "uint256"
        }
      ],
      "name": "names",
      "outputs": [
        {
          "internalType": "string",
          "name": "",
          "type": "string"
        }
      ],
      "stateMutability": "view",
      "type": "function"
    },
    {
      "inputs": [],
      "name": "owner",
      "outputs": [
        {
          "internalType": "address payable",
          "name": "",
          "type": "address"
        }
      ],
      "stateMutability": "view",
      "type": "function"
    },
    {
      "inputs": [
        {
          "internalType": "uint256",
          "name": "tokenId",
          "type": "uint256"
        }
      ],
      "name": "ownerOf",
      "outputs": [
        {
          "internalType": "address",
          "name": "",
          "type": "address"
        }
      ],
      "stateMutability": "view",
      "type": "function"
    },
    {
      "inputs": [
        {
          "internalType": "string",
          "name": "name",
          "type": "string"
        }
      ],
      "name": "price",
      "outputs": [
        {
          "internalType": "uint256",
          "name": "",
          "type": "uint256"
        }
      ],
      "stateMutability": "pure",
      "type": "function"
    },
    {
      "inputs": [
        {
          "internalType": "string",
          "name": "",
          "type": "string"
        }
      ],
      "name": "records",
      "outputs": [
        {
          "internalType": "string",
          "name": "",
          "type": "string"
        }
      ],
      "stateMutability": "view",
      "type": "function"
    },
    {
      "inputs": [
        {
          "internalType": "string",
          "name": "name",
          "type": "string"
        }
      ],
      "name": "register",
      "outputs": [],
      "stateMutability": "payable",
      "type": "function"
    },
    {
      "inputs": [
        {
          "internalType": "address",
          "name": "from",
          "type": "address"
        },
        {
          "internalType": "address",
          "name": "to",
          "type": "address"
        },
        {
          "internalType": "uint256",
          "name": "tokenId",
          "type": "uint256"
        }
      ],
      "name": "safeTransferFrom",
      "outputs": [],
      "stateMutability": "nonpayable",
      "type": "function"
    },
    {
      "inputs": [
        {
          "internalType": "address",
          "name": "from",
          "type": "address"
        },
        {
          "internalType": "address",
          "name": "to",
          "type": "address"
        },
        {
          "internalType": "uint256",
          "name": "tokenId",
          "type": "uint256"
        },
        {
          "internalType": "bytes",
          "name": "_data",
          "type": "bytes"
        }
      ],
      "name": "safeTransferFrom",
      "outputs": [],
      "stateMutability": "nonpayable",
      "type": "function"
    },
    {
      "inputs": [
        {
          "internalType": "address",
          "name": "operator",
          "type": "address"
        },
        {
          "internalType": "bool",
          "name": "approved",
          "type": "bool"
        }
      ],
      "name": "setApprovalForAll",
      "outputs": [],
      "stateMutability": "nonpayable",
      "type": "function"
    },
    {
      "inputs": [
        {
          "internalType": "string",
          "name": "name",
          "type": "string"
        },
        {
          "internalType": "string",
          "name": "email",
          "type": "string"
        }
      ],
      "name": "setEmailAddress",
      "outputs": [],
      "stateMutability": "nonpayable",
      "type": "function"
    },
    {
      "inputs": [
        {
          "internalType": "string",
          "name": "name",
          "type": "string"
        },
        {
          "internalType": "string",
          "name": "record",
          "type": "string"
        }
      ],
      "name": "setRecord",
      "outputs": [],
      "stateMutability": "nonpayable",
      "type": "function"
    },
    {
      "inputs": [
        {
          "internalType": "bytes4",
          "name": "interfaceId",
          "type": "bytes4"
        }
      ],
      "name": "supportsInterface",
      "outputs": [
        {
          "internalType": "bool",
          "name": "",
          "type": "bool"
        }
      ],
      "stateMutability": "view",
      "type": "function"
    },
    {
      "inputs": [],
      "name": "symbol",
      "outputs": [
        {
          "internalType": "string",
          "name": "",
          "type": "string"
        }
      ],
      "stateMutability": "view",
      "type": "function"
    },
    {
      "inputs": [],
      "name": "tld",
      "outputs": [
        {
          "internalType": "string",
          "name": "",
          "type": "string"
        }
      ],
      "stateMutability": "view",
      "type": "function"
    },
    {
      "inputs": [
        {
          "internalType": "uint256",
          "name": "tokenId",
          "type": "uint256"
        }
      ],
      "name": "tokenURI",
      "outputs": [
        {
          "internalType": "string",
          "name": "",
          "type": "string"
        }
      ],
      "stateMutability": "view",
      "type": "function"
    },
    {
      "inputs": [
        {
          "internalType": "address",
          "name": "from",
          "type": "address"
        },
        {
          "internalType": "address",
          "name": "to",
          "type": "address"
        },
        {
          "internalType": "uint256",
          "name": "tokenId",
          "type": "uint256"
        }
      ],
      "name": "transferFrom",
      "outputs": [],
      "stateMutability": "nonpayable",
      "type": "function"
    },
    {
      "inputs": [
        {
          "internalType": "string",
          "name": "name",
          "type": "string"
        }
      ],
      "name": "valid",
      "outputs": [
        {
          "internalType": "bool",
          "name": "",
          "type": "bool"
        }
      ],
      "stateMutability": "pure",
      "type": "function"
    },
    {
      "inputs": [],
      "name": "withdraw",
      "outputs": [],
      "stateMutability": "nonpayable",
      "type": "function"
    }
  ],
  "bytecode": "0x6080604052604051806108a0016040528061086b8152602001620059bd61086b9139600a908051906020019062000038929190620002c8565b506040518060400160405280600d81526020017f3c2f746578743e3c2f7376673e00000000000000000000000000000000000000815250600b908051906020019062000086929190620002c8565b5060405162006228380380620062288339818101604052810190620000ac919062000515565b6040518060400160405280601581526020017f427569646c657273204e616d65205365727669636500000000000000000000008152506040518060400160405280600381526020017f424e530000000000000000000000000000000000000000000000000000000000815250816000908051906020019062000130929190620002c8565b50806001908051906020019062000149929190620002c8565b50505033600760006101000a81548173ffffffffffffffffffffffffffffffffffffffff021916908373ffffffffffffffffffffffffffffffffffffffff1602179055508060099080519060200190620001a5929190620002c8565b50620001f26040518060400160405280601881526020017f2573206e616d652073657276696365206465706c6f796564000000000000000081525082620001f960201b62001ff51760201c565b5062000663565b6200029b828260405160240162000212929190620005c3565b6040516020818303038152906040527f4b5c4277000000000000000000000000000000000000000000000000000000007bffffffffffffffffffffffffffffffffffffffffffffffffffffffff19166020820180517bffffffffffffffffffffffffffffffffffffffffffffffffffffffff83818316178352505050506200029f60201b60201c565b5050565b60008151905060006a636f6e736f6c652e6c6f679050602083016000808483855afa5050505050565b828054620002d6906200062d565b90600052602060002090601f016020900481019282620002fa576000855562000346565b82601f106200031557805160ff191683800117855562000346565b8280016001018555821562000346579182015b828111156200034557825182559160200191906001019062000328565b5b50905062000355919062000359565b5090565b5b80821115620003745760008160009055506001016200035a565b5090565b6000604051905090565b600080fd5b600080fd5b600080fd5b600080fd5b6000601f19601f8301169050919050565b7f4e487b7100000000000000000000000000000000000000000000000000000000600052604160045260246000fd5b620003e18262000396565b810181811067ffffffffffffffff82111715620004035762000402620003a7565b5b80604052505050565b60006200041862000378565b9050620004268282620003d6565b919050565b600067ffffffffffffffff821115620004495762000448620003a7565b5b620004548262000396565b9050602081019050919050565b60005b838110156200048157808201518184015260208101905062000464565b8381111562000491576000848401525b50505050565b6000620004ae620004a8846200042b565b6200040c565b905082815260208101848484011115620004cd57620004cc62000391565b5b620004da84828562000461565b509392505050565b600082601f830112620004fa57620004f96200038c565b5b81516200050c84826020860162000497565b91505092915050565b6000602082840312156200052e576200052d62000382565b5b600082015167ffffffffffffffff8111156200054f576200054e62000387565b5b6200055d84828501620004e2565b91505092915050565b600081519050919050565b600082825260208201905092915050565b60006200058f8262000566565b6200059b818562000571565b9350620005ad81856020860162000461565b620005b88162000396565b840191505092915050565b60006040820190508181036000830152620005df818562000582565b90508181036020830152620005f5818462000582565b90509392505050565b7f4e487b7100000000000000000000000000000000000000000000000000000000600052602260045260246000fd5b600060028204905060018216806200064657607f821691505b602082108114156200065d576200065c620005fe565b5b50919050565b61534a80620006736000396000f3fe6080604052600436106101cd5760003560e01c806382f4ea8b116100f7578063bf40fac111610095578063e985e9c511610064578063e985e9c5146106f8578063f2c298be14610735578063fb825e5f14610751578063fe2c61981461077c576101cd565b8063bf40fac114610618578063c1880a9814610655578063c87b56dd1461067e578063d5b0d30d146106bb576101cd565b806395d89b41116100d157806395d89b411461055e5780639791c09714610589578063a22cb465146105c6578063b88d4fde146105ef576101cd565b806382f4ea8b146104df5780638da5cb5b146105085780638f32d59b14610533576101cd565b8063264492351161016f5780634622ab031161013e5780634622ab03146103eb578063541e771d146104285780636352211e1461046557806370a08231146104a2576101cd565b806326449235146103435780632d551432146103805780633ccfd60b146103ab57806342842e0e146103c2576101cd565b8063095ea7b3116101ab578063095ea7b31461027757806311dd8845146102a057806315fbcaa6146102dd57806323b872dd1461031a576101cd565b806301ffc9a7146101d257806306fdde031461020f578063081812fc1461023a575b600080fd5b3480156101de57600080fd5b506101f960048036038101906101f49190613615565b6107b9565b604051610206919061365d565b60405180910390f35b34801561021b57600080fd5b5061022461089b565b6040516102319190613711565b60405180910390f35b34801561024657600080fd5b50610261600480360381019061025c9190613769565b61092d565b60405161026e91906137d7565b60405180910390f35b34801561028357600080fd5b5061029e6004803603810190610299919061381e565b6109b2565b005b3480156102ac57600080fd5b506102c760048036038101906102c291906138c3565b610aca565b6040516102d49190613711565b60405180910390f35b3480156102e957600080fd5b5061030460048036038101906102ff91906138c3565b610b7d565b6040516103119190613711565b60405180910390f35b34801561032657600080fd5b50610341600480360381019061033c9190613910565b610c30565b005b34801561034f57600080fd5b5061036a60048036038101906103659190613a93565b610c90565b60405161037791906137d7565b60405180910390f35b34801561038c57600080fd5b50610395610cd9565b6040516103a29190613711565b60405180910390f35b3480156103b757600080fd5b506103c0610d67565b005b3480156103ce57600080fd5b506103e960048036038101906103e49190613910565b610e2d565b005b3480156103f757600080fd5b50610412600480360381019061040d9190613769565b610e4d565b60405161041f9190613711565b60405180910390f35b34801561043457600080fd5b5061044f600480360381019061044a9190613a93565b610eed565b60405161045c9190613711565b60405180910390f35b34801561047157600080fd5b5061048c60048036038101906104879190613769565b610fa3565b60405161049991906137d7565b60405180910390f35b3480156104ae57600080fd5b506104c960048036038101906104c49190613adc565b611055565b6040516104d69190613b18565b60405180910390f35b3480156104eb57600080fd5b5061050660048036038101906105019190613b33565b61110d565b005b34801561051457600080fd5b5061051d61124f565b60405161052a9190613bd5565b60405180910390f35b34801561053f57600080fd5b50610548611275565b604051610555919061365d565b60405180910390f35b34801561056a57600080fd5b506105736112cd565b6040516105809190613711565b60405180910390f35b34801561059557600080fd5b506105b060048036038101906105ab91906138c3565b61135f565b6040516105bd919061365d565b60405180910390f35b3480156105d257600080fd5b506105ed60048036038101906105e89190613c1c565b611413565b005b3480156105fb57600080fd5b5061061660048036038101906106119190613cfd565b611429565b005b34801561062457600080fd5b5061063f600480360381019061063a91906138c3565b61148b565b60405161064c91906137d7565b60405180910390f35b34801561066157600080fd5b5061067c60048036038101906106779190613b33565b6114d6565b005b34801561068a57600080fd5b506106a560048036038101906106a09190613769565b611618565b6040516106b29190613711565b60405180910390f35b3480156106c757600080fd5b506106e260048036038101906106dd9190613a93565b61176a565b6040516106ef9190613711565b60405180910390f35b34801561070457600080fd5b5061071f600480360381019061071a9190613d80565b611820565b60405161072c919061365d565b60405180910390f35b61074f600480360381019061074a91906138c3565b6118b4565b005b34801561075d57600080fd5b50610766611d71565b6040516107739190613ecc565b60405180910390f35b34801561078857600080fd5b506107a3600480360381019061079e91906138c3565b611f4f565b6040516107b09190613b18565b60405180910390f35b60007f80ac58cd000000000000000000000000000000000000000000000000000000007bffffffffffffffffffffffffffffffffffffffffffffffffffffffff1916827bffffffffffffffffffffffffffffffffffffffffffffffffffffffff1916148061088457507f5b5e139f000000000000000000000000000000000000000000000000000000007bffffffffffffffffffffffffffffffffffffffffffffffffffffffff1916827bffffffffffffffffffffffffffffffffffffffffffffffffffffffff1916145b80610894575061089382612091565b5b9050919050565b6060600080546108aa90613f1d565b80601f01602080910402602001604051908101604052809291908181526020018280546108d690613f1d565b80156109235780601f106108f857610100808354040283529160200191610923565b820191906000526020600020905b81548152906001019060200180831161090657829003601f168201915b5050505050905090565b6000610938826120fb565b610977576040517f08c379a000000000000000000000000000000000000000000000000000000000815260040161096e90613fc1565b60405180910390fd5b6004600083815260200190815260200160002060009054906101000a900473ffffffffffffffffffffffffffffffffffffffff169050919050565b60006109bd82610fa3565b90508073ffffffffffffffffffffffffffffffffffffffff168373ffffffffffffffffffffffffffffffffffffffff161415610a2e576040517f08c379a0000000000000000000000000000000000000000000000000000000008152600401610a2590614053565b60405180910390fd5b8073ffffffffffffffffffffffffffffffffffffffff16610a4d612167565b73ffffffffffffffffffffffffffffffffffffffff161480610a7c5750610a7b81610a76612167565b611820565b5b610abb576040517f08c379a0000000000000000000000000000000000000000000000000000000008152600401610ab2906140e5565b60405180910390fd5b610ac5838361216f565b505050565b6060600d8383604051610ade929190614135565b90815260200160405180910390208054610af790613f1d565b80601f0160208091040260200160405190810160405280929190818152602001828054610b2390613f1d565b8015610b705780601f10610b4557610100808354040283529160200191610b70565b820191906000526020600020905b815481529060010190602001808311610b5357829003601f168201915b5050505050905092915050565b6060600e8383604051610b91929190614135565b90815260200160405180910390208054610baa90613f1d565b80601f0160208091040260200160405190810160405280929190818152602001828054610bd690613f1d565b8015610c235780601f10610bf857610100808354040283529160200191610c23565b820191906000526020600020905b815481529060010190602001808311610c0657829003601f168201915b5050505050905092915050565b610c41610c3b612167565b82612228565b610c80576040517f08c379a0000000000000000000000000000000000000000000000000000000008152600401610c77906141c0565b60405180910390fd5b610c8b838383612306565b505050565b600c818051602081018201805184825260208301602085012081835280955050505050506000915054906101000a900473ffffffffffffffffffffffffffffffffffffffff1681565b60098054610ce690613f1d565b80601f0160208091040260200160405190810160405280929190818152602001828054610d1290613f1d565b8015610d5f5780601f10610d3457610100808354040283529160200191610d5f565b820191906000526020600020905b815481529060010190602001808311610d4257829003601f168201915b505050505081565b610d6f611275565b610d7857600080fd5b600047905060003373ffffffffffffffffffffffffffffffffffffffff1682604051610da390614211565b60006040518083038185875af1925050503d8060008114610de0576040519150601f19603f3d011682016040523d82523d6000602084013e610de5565b606091505b5050905080610e29576040517f08c379a0000000000000000000000000000000000000000000000000000000008152600401610e2090614272565b60405180910390fd5b5050565b610e4883838360405180602001604052806000815250611429565b505050565b600f6020528060005260406000206000915090508054610e6c90613f1d565b80601f0160208091040260200160405190810160405280929190818152602001828054610e9890613f1d565b8015610ee55780601f10610eba57610100808354040283529160200191610ee5565b820191906000526020600020905b815481529060010190602001808311610ec857829003601f168201915b505050505081565b600d818051602081018201805184825260208301602085012081835280955050505050506000915090508054610f2290613f1d565b80601f0160208091040260200160405190810160405280929190818152602001828054610f4e90613f1d565b8015610f9b5780601f10610f7057610100808354040283529160200191610f9b565b820191906000526020600020905b815481529060010190602001808311610f7e57829003601f168201915b505050505081565b6000806002600084815260200190815260200160002060009054906101000a900473ffffffffffffffffffffffffffffffffffffffff169050600073ffffffffffffffffffffffffffffffffffffffff168173ffffffffffffffffffffffffffffffffffffffff16141561104c576040517f08c379a000000000000000000000000000000000000000000000000000000000815260040161104390614304565b60405180910390fd5b80915050919050565b60008073ffffffffffffffffffffffffffffffffffffffff168273ffffffffffffffffffffffffffffffffffffffff1614156110c6576040517f08c379a00000000000000000000000000000000000000000000000000000000081526004016110bd90614396565b60405180910390fd5b600360008373ffffffffffffffffffffffffffffffffffffffff1673ffffffffffffffffffffffffffffffffffffffff168152602001908152602001600020549050919050565b600c848460405161111f929190614135565b908152602001604051809103902060009054906101000a900473ffffffffffffffffffffffffffffffffffffffff1673ffffffffffffffffffffffffffffffffffffffff163373ffffffffffffffffffffffffffffffffffffffff16146111b2576040517f82b4290000000000000000000000000000000000000000000000000000000000815260040160405180910390fd5b6112196040518060600160405280602e8152602001615217602e91393386868080601f016020809104026020016040519081016040528093929190818152602001838380828437600081840152601f19601f8201169050808301925050505050505061256d565b8181600e868660405161122d929190614135565b90815260200160405180910390209190611248929190613480565b5050505050565b600760009054906101000a900473ffffffffffffffffffffffffffffffffffffffff1681565b6000600760009054906101000a900473ffffffffffffffffffffffffffffffffffffffff1673ffffffffffffffffffffffffffffffffffffffff163373ffffffffffffffffffffffffffffffffffffffff1614905090565b6060600180546112dc90613f1d565b80601f016020809104026020016040519081016040528092919081815260200182805461130890613f1d565b80156113555780601f1061132a57610100808354040283529160200191611355565b820191906000526020600020905b81548152906001019060200180831161133857829003601f168201915b5050505050905090565b600060036113b084848080601f016020809104026020016040519081016040528093929190818152602001838380828437600081840152601f19601f8201169050808301925050505050505061260c565b1015801561140b5750600c61140884848080601f016020809104026020016040519081016040528093929190818152602001838380828437600081840152601f19601f8201169050808301925050505050505061260c565b11155b905092915050565b61142561141e612167565b83836127c1565b5050565b61143a611434612167565b83612228565b611479576040517f08c379a0000000000000000000000000000000000000000000000000000000008152600401611470906141c0565b60405180910390fd5b6114858484848461292e565b50505050565b6000600c838360405161149f929190614135565b908152602001604051809103902060009054906101000a900473ffffffffffffffffffffffffffffffffffffffff16905092915050565b600c84846040516114e8929190614135565b908152602001604051809103902060009054906101000a900473ffffffffffffffffffffffffffffffffffffffff1673ffffffffffffffffffffffffffffffffffffffff163373ffffffffffffffffffffffffffffffffffffffff161461157b576040517f82b4290000000000000000000000000000000000000000000000000000000000815260040160405180910390fd5b6115e26040518060600160405280602681526020016152af602691393386868080601f016020809104026020016040519081016040528093929190818152602001838380828437600081840152601f19601f8201169050808301925050505050505061256d565b8181600d86866040516115f6929190614135565b90815260200160405180910390209190611611929190613480565b5050505050565b6060611623826120fb565b611662576040517f08c379a000000000000000000000000000000000000000000000000000000000815260040161165990614428565b60405180910390fd5b600060066000848152602001908152602001600020805461168290613f1d565b80601f01602080910402602001604051908101604052809291908181526020018280546116ae90613f1d565b80156116fb5780601f106116d0576101008083540402835291602001916116fb565b820191906000526020600020905b8154815290600101906020018083116116de57829003601f168201915b50505050509050600061170c61298a565b9050600081511415611722578192505050611765565b60008251111561175757808260405160200161173f929190614479565b60405160208183030381529060405292505050611765565b611760846129a1565b925050505b919050565b600e81805160208101820180518482526020830160208501208183528095505050505050600091509050805461179f90613f1d565b80601f01602080910402602001604051908101604052809291908181526020018280546117cb90613f1d565b80156118185780601f106117ed57610100808354040283529160200191611818565b820191906000526020600020905b8154815290600101906020018083116117fb57829003601f168201915b505050505081565b6000600560008473ffffffffffffffffffffffffffffffffffffffff1673ffffffffffffffffffffffffffffffffffffffff16815260200190815260200160002060008373ffffffffffffffffffffffffffffffffffffffff1673ffffffffffffffffffffffffffffffffffffffff16815260200190815260200160002060009054906101000a900460ff16905092915050565b600073ffffffffffffffffffffffffffffffffffffffff16600c83836040516118de929190614135565b908152602001604051809103902060009054906101000a900473ffffffffffffffffffffffffffffffffffffffff1673ffffffffffffffffffffffffffffffffffffffff161461195a576040517f3a81d6fc00000000000000000000000000000000000000000000000000000000815260040160405180910390fd5b611964828261135f565b6119a75781816040517f7f19f48d00000000000000000000000000000000000000000000000000000000815260040161199e9291906144ca565b60405180910390fd5b60006119b38383611f4f565b9050803410156119f8576040517f08c379a00000000000000000000000000000000000000000000000000000000081526004016119ef9061453a565b60405180910390fd5b600083836009604051602001611a109392919061463a565b60405160208183030381529060405290506000600a82600b604051602001611a3a9392919061466b565b60405160208183030381529060405290506000611a576008612a48565b90506000611aa887878080601f016020809104026020016040519081016040528093929190818152602001838380828437600081840152601f19601f8201169050808301925050505050505061260c565b90506000611ab582612a56565b9050611ba96040518060600160405280603181526020016152456031913989898080601f016020809104026020016040519081016040528093929190818152602001838380828437600081840152601f19601f8201169050808301925050505050505060098054611b2590613f1d565b80601f0160208091040260200160405190810160405280929190818152602001828054611b5190613f1d565b8015611b9e5780601f10611b7357610100808354040283529160200191611b9e565b820191906000526020600020905b815481529060010190602001808311611b8157829003601f168201915b505050505086612bb7565b6000611bdf86611bb887612c59565b84604051602001611bcb93929190614818565b604051602081830303815290604052612c59565b9050600081604051602001611bf491906148c1565b6040516020818303038152906040529050611c266040518060600160405280603981526020016151de60399139612df1565b611c656040518060400160405280600e81526020017f46696e616c20746f6b656e55524900000000000000000000000000000000000081525082611ff5565b611c8660405180606001604052806039815260200161527660399139612df1565b611c903386612e8a565b611c9a8582612ea8565b33600c8b8b604051611cad929190614135565b908152602001604051809103902060006101000a81548173ffffffffffffffffffffffffffffffffffffffff021916908373ffffffffffffffffffffffffffffffffffffffff1602179055508989600f60008881526020019081526020016000209190611d1b929190613480565b50611d266008612f1c565b611d656040518060400160405280601b81526020017f2573206861732072656769737465726564206120646f6d61696e21000000000081525033612f32565b50505050505050505050565b6060611db16040518060400160405280601f81526020017f47657474696e6720616c6c206e616d65732066726f6d20636f6e747261637400815250612df1565b6000611dbd6008612a48565b67ffffffffffffffff811115611dd657611dd5613968565b5b604051908082528060200260200182016040528015611e0957816020015b6060815260200190600190039081611df45790505b50905060005b611e196008612a48565b811015611f4757600f60008281526020019081526020016000208054611e3e90613f1d565b80601f0160208091040260200160405190810160405280929190818152602001828054611e6a90613f1d565b8015611eb75780601f10611e8c57610100808354040283529160200191611eb7565b820191906000526020600020905b815481529060010190602001808311611e9a57829003601f168201915b5050505050828281518110611ecf57611ece6148e3565b5b6020026020010181905250611f346040518060400160405280601781526020017f4e616d6520666f7220746f6b656e20256420697320257300000000000000000081525082848481518110611f2757611f266148e3565b5b6020026020010151612fce565b8080611f3f90614941565b915050611e0f565b508091505090565b600080611f9f84848080601f016020809104026020016040519081016040528093929190818152602001838380828437600081840152601f19601f8201169050808301925050505050505061260c565b905060028111611fae57600080fd5b6003811415611fc8576706f05b59d3b20000915050611fef565b6004811415611fe257670429d069189e0000915050611fef565b67016345785d8a00009150505b92915050565b61208d828260405160240161200b92919061498a565b6040516020818303038152906040527f4b5c4277000000000000000000000000000000000000000000000000000000007bffffffffffffffffffffffffffffffffffffffffffffffffffffffff19166020820180517bffffffffffffffffffffffffffffffffffffffffffffffffffffffff838183161783525050505061306d565b5050565b60007f01ffc9a7000000000000000000000000000000000000000000000000000000007bffffffffffffffffffffffffffffffffffffffffffffffffffffffff1916827bffffffffffffffffffffffffffffffffffffffffffffffffffffffff1916149050919050565b60008073ffffffffffffffffffffffffffffffffffffffff166002600084815260200190815260200160002060009054906101000a900473ffffffffffffffffffffffffffffffffffffffff1673ffffffffffffffffffffffffffffffffffffffff1614159050919050565b600033905090565b816004600083815260200190815260200160002060006101000a81548173ffffffffffffffffffffffffffffffffffffffff021916908373ffffffffffffffffffffffffffffffffffffffff160217905550808273ffffffffffffffffffffffffffffffffffffffff166121e283610fa3565b73ffffffffffffffffffffffffffffffffffffffff167f8c5be1e5ebec7d5bd14f71427d1e84f3dd0314c0f7b2291e5b200ac8c7c3b92560405160405180910390a45050565b6000612233826120fb565b612272576040517f08c379a000000000000000000000000000000000000000000000000000000000815260040161226990614a33565b60405180910390fd5b600061227d83610fa3565b90508073ffffffffffffffffffffffffffffffffffffffff168473ffffffffffffffffffffffffffffffffffffffff1614806122ec57508373ffffffffffffffffffffffffffffffffffffffff166122d48461092d565b73ffffffffffffffffffffffffffffffffffffffff16145b806122fd57506122fc8185611820565b5b91505092915050565b8273ffffffffffffffffffffffffffffffffffffffff1661232682610fa3565b73ffffffffffffffffffffffffffffffffffffffff161461237c576040517f08c379a000000000000000000000000000000000000000000000000000000000815260040161237390614ac5565b60405180910390fd5b600073ffffffffffffffffffffffffffffffffffffffff168273ffffffffffffffffffffffffffffffffffffffff1614156123ec576040517f08c379a00000000000000000000000000000000000000000000000000000000081526004016123e390614b57565b60405180910390fd5b6123f7838383613096565b61240260008261216f565b6001600360008573ffffffffffffffffffffffffffffffffffffffff1673ffffffffffffffffffffffffffffffffffffffff16815260200190815260200160002060008282546124529190614b77565b925050819055506001600360008473ffffffffffffffffffffffffffffffffffffffff1673ffffffffffffffffffffffffffffffffffffffff16815260200190815260200160002060008282546124a99190614bab565b92505081905550816002600083815260200190815260200160002060006101000a81548173ffffffffffffffffffffffffffffffffffffffff021916908373ffffffffffffffffffffffffffffffffffffffff160217905550808273ffffffffffffffffffffffffffffffffffffffff168473ffffffffffffffffffffffffffffffffffffffff167fddf252ad1be2c89b69c2b068fc378daa952ba7f163c4a11628f55a4df523b3ef60405160405180910390a461256883838361309b565b505050565b61260783838360405160240161258593929190614c01565b6040516020818303038152906040527fe0e9ad4f000000000000000000000000000000000000000000000000000000007bffffffffffffffffffffffffffffffffffffffffffffffffffffffff19166020820180517bffffffffffffffffffffffffffffffffffffffffffffffffffffffff838183161783525050505061306d565b505050565b60008060008084519050600092505b808210156127b6576000858381518110612638576126376148e3565b5b602001015160f81c60f81b9050608060f81b817effffffffffffffffffffffffffffffffffffffffffffffffffffffffffffff19161015612687576001836126809190614bab565b92506127a2565b60e060f81b817effffffffffffffffffffffffffffffffffffffffffffffffffffffffffffff191610156126c9576002836126c29190614bab565b92506127a1565b60f060f81b817effffffffffffffffffffffffffffffffffffffffffffffffffffffffffffff1916101561270b576003836127049190614bab565b92506127a0565b60f8801b817effffffffffffffffffffffffffffffffffffffffffffffffffffffffffffff1916101561274c576004836127459190614bab565b925061279f565b60fc60f81b817effffffffffffffffffffffffffffffffffffffffffffffffffffffffffffff1916101561278e576005836127879190614bab565b925061279e565b60068361279b9190614bab565b92505b5b5b5b5b5082806127ae90614941565b93505061261b565b829350505050919050565b8173ffffffffffffffffffffffffffffffffffffffff168373ffffffffffffffffffffffffffffffffffffffff161415612830576040517f08c379a000000000000000000000000000000000000000000000000000000000815260040161282790614c92565b60405180910390fd5b80600560008573ffffffffffffffffffffffffffffffffffffffff1673ffffffffffffffffffffffffffffffffffffffff16815260200190815260200160002060008473ffffffffffffffffffffffffffffffffffffffff1673ffffffffffffffffffffffffffffffffffffffff16815260200190815260200160002060006101000a81548160ff0219169083151502179055508173ffffffffffffffffffffffffffffffffffffffff168373ffffffffffffffffffffffffffffffffffffffff167f17307eab39ab6107e8899845ad3d59bd9653f200f220920489ca2b5937696c3183604051612921919061365d565b60405180910390a3505050565b612939848484612306565b612945848484846130a0565b612984576040517f08c379a000000000000000000000000000000000000000000000000000000000815260040161297b90614d24565b60405180910390fd5b50505050565b606060405180602001604052806000815250905090565b60606129ac826120fb565b6129eb576040517f08c379a00000000000000000000000000000000000000000000000000000000081526004016129e290614db6565b60405180910390fd5b60006129f561298a565b90506000815111612a155760405180602001604052806000815250612a40565b80612a1f84612a56565b604051602001612a30929190614479565b6040516020818303038152906040525b915050919050565b600081600001549050919050565b60606000821415612a9e576040518060400160405280600181526020017f30000000000000000000000000000000000000000000000000000000000000008152509050612bb2565b600082905060005b60008214612ad0578080612ab990614941565b915050600a82612ac99190614e05565b9150612aa6565b60008167ffffffffffffffff811115612aec57612aeb613968565b5b6040519080825280601f01601f191660200182016040528015612b1e5781602001600182028036833780820191505090505b5090505b60008514612bab57600182612b379190614b77565b9150600a85612b469190614e36565b6030612b529190614bab565b60f81b818381518110612b6857612b676148e3565b5b60200101907effffffffffffffffffffffffffffffffffffffffffffffffffffffffffffff1916908160001a905350600a85612ba49190614e05565b9450612b22565b8093505050505b919050565b612c5384848484604051602401612bd19493929190614e67565b6040516020818303038152906040527f9fd009f5000000000000000000000000000000000000000000000000000000007bffffffffffffffffffffffffffffffffffffffffffffffffffffffff19166020820180517bffffffffffffffffffffffffffffffffffffffffffffffffffffffff838183161783525050505061306d565b50505050565b60606000825190506000811415612c825760405180602001604052806000815250915050612dec565b60006003600283612c939190614bab565b612c9d9190614e05565b6004612ca99190614ec1565b90506000602082612cba9190614bab565b67ffffffffffffffff811115612cd357612cd2613968565b5b6040519080825280601f01601f191660200182016040528015612d055781602001600182028036833780820191505090505b50905060006040518060600160405280604081526020016152d5604091399050600181016020830160005b86811015612da95760038101905062ffffff818a015116603f8160121c168401518060081b905060ff603f83600c1c1686015116810190508060081b905060ff603f8360061c1686015116810190508060081b905060ff603f831686015116810190508060e01b90508084526004840193505050612d30565b506003860660018114612dc35760028114612dd357612dde565b613d3d60f01b6002830352612dde565b603d60f81b60018303525b508484525050819450505050505b919050565b612e8781604051602401612e059190613711565b6040516020818303038152906040527f41304fac000000000000000000000000000000000000000000000000000000007bffffffffffffffffffffffffffffffffffffffffffffffffffffffff19166020820180517bffffffffffffffffffffffffffffffffffffffffffffffffffffffff838183161783525050505061306d565b50565b612ea4828260405180602001604052806000815250613228565b5050565b612eb1826120fb565b612ef0576040517f08c379a0000000000000000000000000000000000000000000000000000000008152600401612ee790614f8d565b60405180910390fd5b80600660008481526020019081526020016000209080519060200190612f17929190613506565b505050565b6001816000016000828254019250508190555050565b612fca8282604051602401612f48929190614fad565b6040516020818303038152906040527f319af333000000000000000000000000000000000000000000000000000000007bffffffffffffffffffffffffffffffffffffffffffffffffffffffff19166020820180517bffffffffffffffffffffffffffffffffffffffffffffffffffffffff838183161783525050505061306d565b5050565b613068838383604051602401612fe693929190614fdd565b6040516020818303038152906040527fa3f5c739000000000000000000000000000000000000000000000000000000007bffffffffffffffffffffffffffffffffffffffffffffffffffffffff19166020820180517bffffffffffffffffffffffffffffffffffffffffffffffffffffffff838183161783525050505061306d565b505050565b60008151905060006a636f6e736f6c652e6c6f679050602083016000808483855afa5050505050565b505050565b505050565b60006130c18473ffffffffffffffffffffffffffffffffffffffff16613283565b1561321b578373ffffffffffffffffffffffffffffffffffffffff1663150b7a026130ea612167565b8786866040518563ffffffff1660e01b815260040161310c9493929190615077565b6020604051808303816000875af192505050801561314857506040513d601f19601f8201168201806040525081019061314591906150d8565b60015b6131cb573d8060008114613178576040519150601f19603f3d011682016040523d82523d6000602084013e61317d565b606091505b506000815114156131c3576040517f08c379a00000000000000000000000000000000000000000000000000000000081526004016131ba90614d24565b60405180910390fd5b805181602001fd5b63150b7a0260e01b7bffffffffffffffffffffffffffffffffffffffffffffffffffffffff1916817bffffffffffffffffffffffffffffffffffffffffffffffffffffffff191614915050613220565b600190505b949350505050565b61323283836132a6565b61323f60008484846130a0565b61327e576040517f08c379a000000000000000000000000000000000000000000000000000000000815260040161327590614d24565b60405180910390fd5b505050565b6000808273ffffffffffffffffffffffffffffffffffffffff163b119050919050565b600073ffffffffffffffffffffffffffffffffffffffff168273ffffffffffffffffffffffffffffffffffffffff161415613316576040517f08c379a000000000000000000000000000000000000000000000000000000000815260040161330d90615151565b60405180910390fd5b61331f816120fb565b1561335f576040517f08c379a0000000000000000000000000000000000000000000000000000000008152600401613356906151bd565b60405180910390fd5b61336b60008383613096565b6001600360008473ffffffffffffffffffffffffffffffffffffffff1673ffffffffffffffffffffffffffffffffffffffff16815260200190815260200160002060008282546133bb9190614bab565b92505081905550816002600083815260200190815260200160002060006101000a81548173ffffffffffffffffffffffffffffffffffffffff021916908373ffffffffffffffffffffffffffffffffffffffff160217905550808273ffffffffffffffffffffffffffffffffffffffff16600073ffffffffffffffffffffffffffffffffffffffff167fddf252ad1be2c89b69c2b068fc378daa952ba7f163c4a11628f55a4df523b3ef60405160405180910390a461347c6000838361309b565b5050565b82805461348c90613f1d565b90600052602060002090601f0160209004810192826134ae57600085556134f5565b82601f106134c757803560ff19168380011785556134f5565b828001600101855582156134f5579182015b828111156134f45782358255916020019190600101906134d9565b5b509050613502919061358c565b5090565b82805461351290613f1d565b90600052602060002090601f016020900481019282613534576000855561357b565b82601f1061354d57805160ff191683800117855561357b565b8280016001018555821561357b579182015b8281111561357a57825182559160200191906001019061355f565b5b509050613588919061358c565b5090565b5b808211156135a557600081600090555060010161358d565b5090565b6000604051905090565b600080fd5b600080fd5b60007fffffffff0000000000000000000000000000000000000000000000000000000082169050919050565b6135f2816135bd565b81146135fd57600080fd5b50565b60008135905061360f816135e9565b92915050565b60006020828403121561362b5761362a6135b3565b5b600061363984828501613600565b91505092915050565b60008115159050919050565b61365781613642565b82525050565b6000602082019050613672600083018461364e565b92915050565b600081519050919050565b600082825260208201905092915050565b60005b838110156136b2578082015181840152602081019050613697565b838111156136c1576000848401525b50505050565b6000601f19601f8301169050919050565b60006136e382613678565b6136ed8185613683565b93506136fd818560208601613694565b613706816136c7565b840191505092915050565b6000602082019050818103600083015261372b81846136d8565b905092915050565b6000819050919050565b61374681613733565b811461375157600080fd5b50565b6000813590506137638161373d565b92915050565b60006020828403121561377f5761377e6135b3565b5b600061378d84828501613754565b91505092915050565b600073ffffffffffffffffffffffffffffffffffffffff82169050919050565b60006137c182613796565b9050919050565b6137d1816137b6565b82525050565b60006020820190506137ec60008301846137c8565b92915050565b6137fb816137b6565b811461380657600080fd5b50565b600081359050613818816137f2565b92915050565b60008060408385031215613835576138346135b3565b5b600061384385828601613809565b925050602061385485828601613754565b9150509250929050565b600080fd5b600080fd5b600080fd5b60008083601f8401126138835761388261385e565b5b8235905067ffffffffffffffff8111156138a05761389f613863565b5b6020830191508360018202830111156138bc576138bb613868565b5b9250929050565b600080602083850312156138da576138d96135b3565b5b600083013567ffffffffffffffff8111156138f8576138f76135b8565b5b6139048582860161386d565b92509250509250929050565b600080600060608486031215613929576139286135b3565b5b600061393786828701613809565b935050602061394886828701613809565b925050604061395986828701613754565b9150509250925092565b600080fd5b7f4e487b7100000000000000000000000000000000000000000000000000000000600052604160045260246000fd5b6139a0826136c7565b810181811067ffffffffffffffff821117156139bf576139be613968565b5b80604052505050565b60006139d26135a9565b90506139de8282613997565b919050565b600067ffffffffffffffff8211156139fe576139fd613968565b5b613a07826136c7565b9050602081019050919050565b82818337600083830152505050565b6000613a36613a31846139e3565b6139c8565b905082815260208101848484011115613a5257613a51613963565b5b613a5d848285613a14565b509392505050565b600082601f830112613a7a57613a7961385e565b5b8135613a8a848260208601613a23565b91505092915050565b600060208284031215613aa957613aa86135b3565b5b600082013567ffffffffffffffff811115613ac757613ac66135b8565b5b613ad384828501613a65565b91505092915050565b600060208284031215613af257613af16135b3565b5b6000613b0084828501613809565b91505092915050565b613b1281613733565b82525050565b6000602082019050613b2d6000830184613b09565b92915050565b60008060008060408587031215613b4d57613b4c6135b3565b5b600085013567ffffffffffffffff811115613b6b57613b6a6135b8565b5b613b778782880161386d565b9450945050602085013567ffffffffffffffff811115613b9a57613b996135b8565b5b613ba68782880161386d565b925092505092959194509250565b6000613bbf82613796565b9050919050565b613bcf81613bb4565b82525050565b6000602082019050613bea6000830184613bc6565b92915050565b613bf981613642565b8114613c0457600080fd5b50565b600081359050613c1681613bf0565b92915050565b60008060408385031215613c3357613c326135b3565b5b6000613c4185828601613809565b9250506020613c5285828601613c07565b9150509250929050565b600067ffffffffffffffff821115613c7757613c76613968565b5b613c80826136c7565b9050602081019050919050565b6000613ca0613c9b84613c5c565b6139c8565b905082815260208101848484011115613cbc57613cbb613963565b5b613cc7848285613a14565b509392505050565b600082601f830112613ce457613ce361385e565b5b8135613cf4848260208601613c8d565b91505092915050565b60008060008060808587031215613d1757613d166135b3565b5b6000613d2587828801613809565b9450506020613d3687828801613809565b9350506040613d4787828801613754565b925050606085013567ffffffffffffffff811115613d6857613d676135b8565b5b613d7487828801613ccf565b91505092959194509250565b60008060408385031215613d9757613d966135b3565b5b6000613da585828601613809565b9250506020613db685828601613809565b9150509250929050565b600081519050919050565b600082825260208201905092915050565b6000819050602082019050919050565b600082825260208201905092915050565b6000613e0882613678565b613e128185613dec565b9350613e22818560208601613694565b613e2b816136c7565b840191505092915050565b6000613e428383613dfd565b905092915050565b6000602082019050919050565b6000613e6282613dc0565b613e6c8185613dcb565b935083602082028501613e7e85613ddc565b8060005b85811015613eba5784840389528151613e9b8582613e36565b9450613ea683613e4a565b925060208a01995050600181019050613e82565b50829750879550505050505092915050565b60006020820190508181036000830152613ee68184613e57565b905092915050565b7f4e487b7100000000000000000000000000000000000000000000000000000000600052602260045260246000fd5b60006002820490506001821680613f3557607f821691505b60208210811415613f4957613f48613eee565b5b50919050565b7f4552433732313a20617070726f76656420717565727920666f72206e6f6e657860008201527f697374656e7420746f6b656e0000000000000000000000000000000000000000602082015250565b6000613fab602c83613683565b9150613fb682613f4f565b604082019050919050565b60006020820190508181036000830152613fda81613f9e565b9050919050565b7f4552433732313a20617070726f76616c20746f2063757272656e74206f776e6560008201527f7200000000000000000000000000000000000000000000000000000000000000602082015250565b600061403d602183613683565b915061404882613fe1565b604082019050919050565b6000602082019050818103600083015261406c81614030565b9050919050565b7f4552433732313a20617070726f76652063616c6c6572206973206e6f74206f7760008201527f6e6572206e6f7220617070726f76656420666f7220616c6c0000000000000000602082015250565b60006140cf603883613683565b91506140da82614073565b604082019050919050565b600060208201905081810360008301526140fe816140c2565b9050919050565b600081905092915050565b600061411c8385614105565b9350614129838584613a14565b82840190509392505050565b6000614142828486614110565b91508190509392505050565b7f4552433732313a207472616e736665722063616c6c6572206973206e6f74206f60008201527f776e6572206e6f7220617070726f766564000000000000000000000000000000602082015250565b60006141aa603183613683565b91506141b58261414e565b604082019050919050565b600060208201905081810360008301526141d98161419d565b9050919050565b600081905092915050565b50565b60006141fb6000836141e0565b9150614206826141eb565b600082019050919050565b600061421c826141ee565b9150819050919050565b7f4661696c656420746f207769746864726177204d617469630000000000000000600082015250565b600061425c601883613683565b915061426782614226565b602082019050919050565b6000602082019050818103600083015261428b8161424f565b9050919050565b7f4552433732313a206f776e657220717565727920666f72206e6f6e657869737460008201527f656e7420746f6b656e0000000000000000000000000000000000000000000000602082015250565b60006142ee602983613683565b91506142f982614292565b604082019050919050565b6000602082019050818103600083015261431d816142e1565b9050919050565b7f4552433732313a2062616c616e636520717565727920666f7220746865207a6560008201527f726f206164647265737300000000000000000000000000000000000000000000602082015250565b6000614380602a83613683565b915061438b82614324565b604082019050919050565b600060208201905081810360008301526143af81614373565b9050919050565b7f45524337323155524953746f726167653a2055524920717565727920666f722060008201527f6e6f6e6578697374656e7420746f6b656e000000000000000000000000000000602082015250565b6000614412603183613683565b915061441d826143b6565b604082019050919050565b6000602082019050818103600083015261444181614405565b9050919050565b600061445382613678565b61445d8185614105565b935061446d818560208601613694565b80840191505092915050565b60006144858285614448565b91506144918284614448565b91508190509392505050565b60006144a98385613683565b93506144b6838584613a14565b6144bf836136c7565b840190509392505050565b600060208201905081810360008301526144e581848661449d565b90509392505050565b7f4e6f7420656e6f756768204d6174696320706169640000000000000000000000600082015250565b6000614524601583613683565b915061452f826144ee565b602082019050919050565b6000602082019050818103600083015261455381614517565b9050919050565b7f2e00000000000000000000000000000000000000000000000000000000000000600082015250565b6000614590600183614105565b915061459b8261455a565b600182019050919050565b60008190508160005260206000209050919050565b600081546145c881613f1d565b6145d28186614105565b945060018216600081146145ed57600181146145fe57614631565b60ff19831686528186019350614631565b614607856145a6565b60005b838110156146295781548189015260018201915060208101905061460a565b838801955050505b50505092915050565b6000614647828587614110565b915061465282614583565b915061465e82846145bb565b9150819050949350505050565b600061467782866145bb565b91506146838285614448565b915061468f82846145bb565b9150819050949350505050565b7f7b226e616d65223a202200000000000000000000000000000000000000000000600082015250565b60006146d2600a83614105565b91506146dd8261469c565b600a82019050919050565b7f222c20226465736372697074696f6e223a20224120646f6d61696e206f6e207460008201527f686520427569646c657273204e616d652053657276696365222c2022696d616760208201527f65223a2022646174613a696d6167652f7376672b786d6c3b6261736536342c00604082015250565b600061476a605f83614105565b9150614775826146e8565b605f82019050919050565b7f222c226c656e677468223a220000000000000000000000000000000000000000600082015250565b60006147b6600c83614105565b91506147c182614780565b600c82019050919050565b7f227d000000000000000000000000000000000000000000000000000000000000600082015250565b6000614802600283614105565b915061480d826147cc565b600282019050919050565b6000614823826146c5565b915061482f8286614448565b915061483a8261475d565b91506148468285614448565b9150614851826147a9565b915061485d8284614448565b9150614868826147f5565b9150819050949350505050565b7f646174613a6170706c69636174696f6e2f6a736f6e3b6261736536342c000000600082015250565b60006148ab601d83614105565b91506148b682614875565b601d82019050919050565b60006148cc8261489e565b91506148d88284614448565b915081905092915050565b7f4e487b7100000000000000000000000000000000000000000000000000000000600052603260045260246000fd5b7f4e487b7100000000000000000000000000000000000000000000000000000000600052601160045260246000fd5b600061494c82613733565b91507fffffffffffffffffffffffffffffffffffffffffffffffffffffffffffffffff82141561497f5761497e614912565b5b600182019050919050565b600060408201905081810360008301526149a481856136d8565b905081810360208301526149b881846136d8565b90509392505050565b7f4552433732313a206f70657261746f7220717565727920666f72206e6f6e657860008201527f697374656e7420746f6b656e0000000000000000000000000000000000000000602082015250565b6000614a1d602c83613683565b9150614a28826149c1565b604082019050919050565b60006020820190508181036000830152614a4c81614a10565b9050919050565b7f4552433732313a207472616e736665722066726f6d20696e636f72726563742060008201527f6f776e6572000000000000000000000000000000000000000000000000000000602082015250565b6000614aaf602583613683565b9150614aba82614a53565b604082019050919050565b60006020820190508181036000830152614ade81614aa2565b9050919050565b7f4552433732313a207472616e7366657220746f20746865207a65726f2061646460008201527f7265737300000000000000000000000000000000000000000000000000000000602082015250565b6000614b41602483613683565b9150614b4c82614ae5565b604082019050919050565b60006020820190508181036000830152614b7081614b34565b9050919050565b6000614b8282613733565b9150614b8d83613733565b925082821015614ba057614b9f614912565b5b828203905092915050565b6000614bb682613733565b9150614bc183613733565b9250827fffffffffffffffffffffffffffffffffffffffffffffffffffffffffffffffff03821115614bf657614bf5614912565b5b828201905092915050565b60006060820190508181036000830152614c1b81866136d8565b9050614c2a60208301856137c8565b8181036040830152614c3c81846136d8565b9050949350505050565b7f4552433732313a20617070726f766520746f2063616c6c657200000000000000600082015250565b6000614c7c601983613683565b9150614c8782614c46565b602082019050919050565b60006020820190508181036000830152614cab81614c6f565b9050919050565b7f4552433732313a207472616e7366657220746f206e6f6e20455243373231526560008201527f63656976657220696d706c656d656e7465720000000000000000000000000000602082015250565b6000614d0e603283613683565b9150614d1982614cb2565b604082019050919050565b60006020820190508181036000830152614d3d81614d01565b9050919050565b7f4552433732314d657461646174613a2055524920717565727920666f72206e6f60008201527f6e6578697374656e7420746f6b656e0000000000000000000000000000000000602082015250565b6000614da0602f83613683565b9150614dab82614d44565b604082019050919050565b60006020820190508181036000830152614dcf81614d93565b9050919050565b7f4e487b7100000000000000000000000000000000000000000000000000000000600052601260045260246000fd5b6000614e1082613733565b9150614e1b83613733565b925082614e2b57614e2a614dd6565b5b828204905092915050565b6000614e4182613733565b9150614e4c83613733565b925082614e5c57614e5b614dd6565b5b828206905092915050565b60006080820190508181036000830152614e8181876136d8565b90508181036020830152614e9581866136d8565b90508181036040830152614ea981856136d8565b9050614eb86060830184613b09565b95945050505050565b6000614ecc82613733565b9150614ed783613733565b9250817fffffffffffffffffffffffffffffffffffffffffffffffffffffffffffffffff0483118215151615614f1057614f0f614912565b5b828202905092915050565b7f45524337323155524953746f726167653a2055524920736574206f66206e6f6e60008201527f6578697374656e7420746f6b656e000000000000000000000000000000000000602082015250565b6000614f77602e83613683565b9150614f8282614f1b565b604082019050919050565b60006020820190508181036000830152614fa681614f6a565b9050919050565b60006040820190508181036000830152614fc781856136d8565b9050614fd660208301846137c8565b9392505050565b60006060820190508181036000830152614ff781866136d8565b90506150066020830185613b09565b818103604083015261501881846136d8565b9050949350505050565b600081519050919050565b600082825260208201905092915050565b600061504982615022565b615053818561502d565b9350615063818560208601613694565b61506c816136c7565b840191505092915050565b600060808201905061508c60008301876137c8565b61509960208301866137c8565b6150a66040830185613b09565b81810360608301526150b8818461503e565b905095945050505050565b6000815190506150d2816135e9565b92915050565b6000602082840312156150ee576150ed6135b3565b5b60006150fc848285016150c3565b91505092915050565b7f4552433732313a206d696e7420746f20746865207a65726f2061646472657373600082015250565b600061513b602083613683565b915061514682615105565b602082019050919050565b6000602082019050818103600083015261516a8161512e565b9050919050565b7f4552433732313a20746f6b656e20616c7265616479206d696e74656400000000600082015250565b60006151a7601c83613683565b91506151b282615171565b602082019050919050565b600060208201905081810360008301526151d68161519a565b905091905056fe0a2d2d2d2d2d2d2d2d2d2d2d2d2d2d2d2d2d2d2d2d2d2d2d2d2d2d2d2d2d2d2d2d2d2d2d2d2d2d2d2d2d2d2d2d2d2d2d2d2d2d2d2d2d2d2d2d2573206861732073657420616e20656d61696c206164647265737320666f72207468652020646f6d61696e2025735265676973746572696e672025732e2573206f6e2074686520636f6e7472616374207769746820746f6b656e49442025642d2d2d2d2d2d2d2d2d2d2d2d2d2d2d2d2d2d2d2d2d2d2d2d2d2d2d2d2d2d2d2d2d2d2d2d2d2d2d2d2d2d2d2d2d2d2d2d2d2d2d2d2d2d2d2d0a257320686173207365742061207265636f726420666f72207468652020646f6d61696e2025734142434445464748494a4b4c4d4e4f505152535455565758595a6162636465666768696a6b6c6d6e6f707172737475767778797a303132333435363738392b2fa26469706673582212200a56a6e70b27c13ef1fdd60bf768ef54a369a1803f6802f161de283173c2e46e64736f6c634300080a00333c73766720786d6c6e733d22687474703a2f2f7777772e77332e6f72672f323030302f737667222077696474683d2232373022206865696768743d22323730222066696c6c3d226e6f6e65223e3c706174682066696c6c3d2275726c282342292220643d224d302030683237307632373048307a222f3e3c646566733e3c66696c7465722069643d22412220636f6c6f722d696e746572706f6c6174696f6e2d66696c746572733d2273524742222066696c746572556e6974733d227573657253706163654f6e55736522206865696768743d22323730222077696474683d22323730223e3c666544726f70536861646f772064783d2230222064793d22312220737464446576696174696f6e3d22322220666c6f6f642d6f7061636974793d222e323235222077696474683d223230302522206865696768743d2232303025222f3e3c2f66696c7465723e3c2f646566733e3c7061746820643d224d37322e3836332034322e393439632d2e3636382d2e3338372d312e3432362d2e35392d322e3139372d2e3539732d312e3532392e3230342d322e3139372e35396c2d31302e30383120362e3033322d362e383520332e3933342d31302e30383120362e303332632d2e3636382e3338372d312e3432362e35392d322e3139372e3539732d312e3532392d2e3230342d322e3139372d2e35396c2d382e3031332d342e37323161342e353220342e35322030203020312d312e3538392d312e363136632d2e3338342d2e3636352d2e3539342d312e3431382d2e3630382d322e313837762d392e3331632d2e3031332d2e3737352e3138352d312e3533382e3537322d322e32303861342e323520342e323520302030203120312e3632352d312e3539356c372e3838342d342e3539632e3636382d2e33383720312e3432362d2e353920322e3139372d2e353973312e3532392e32303420322e3139372e35396c372e38383420342e353961342e353220342e353220302030203120312e35383920312e363136632e3338342e3636352e35393420312e3431382e36303820322e31383776362e3033326c362e38352d342e303635762d362e303332632e3031332d2e3737352d2e3138352d312e3533382d2e3537322d322e32303861342e323520342e32352030203020302d312e3632352d312e3539354c34312e3435362032342e3539632d2e3636382d2e3338372d312e3432362d2e35392d322e3139372d2e3539732d312e3532392e3230342d322e3139372e35396c2d31342e38363420382e36353561342e323520342e32352030203020302d312e36323520312e353935632d2e3338372e36372d2e35383520312e3433342d2e35373220322e3230387631372e343431632d2e3031332e3737352e31383520312e3533382e35373220322e32303861342e323520342e323520302030203020312e36323520312e3539356c31342e38363420382e363535632e3636382e33383720312e3432362e353920322e3139372e353973312e3532392d2e32303420322e3139372d2e35396c31302e3038312d352e39303120362e38352d342e3036352031302e3038312d352e393031632e3636382d2e33383720312e3432362d2e353920322e3139372d2e353973312e3532392e32303420322e3139372e35396c372e38383420342e353961342e353220342e353220302030203120312e35383920312e363136632e3338342e3636352e35393420312e3431382e36303820322e31383776392e333131632e3031332e3737352d2e31383520312e3533382d2e35373220322e32303861342e323520342e32352030203020312d312e36323520312e3539356c2d372e38383420342e373231632d2e3636382e3338372d312e3432362e35392d322e3139372e3539732d312e3532392d2e3230342d322e3139372d2e35396c2d372e3838342d342e353961342e353220342e35322030203020312d312e3538392d312e363136632d2e3338352d2e3636352d2e3539342d312e3431382d2e3630382d322e313837762d362e3033326c2d362e383520342e30363576362e303332632d2e3031332e3737352e31383520312e3533382e35373220322e32303861342e323520342e323520302030203020312e36323520312e3539356c31342e38363420382e363535632e3636382e33383720312e3432362e353920322e3139372e353973312e3532392d2e32303420322e3139372d2e35396c31342e3836342d382e363535632e3635372d2e33393420312e3230342d2e393520312e3538392d312e363136732e3539342d312e3431382e3630392d322e3138375635352e353338632e3031332d2e3737352d2e3138352d312e3533382d2e3537322d322e32303861342e323520342e32352030203020302d312e3632352d312e3539356c2d31342e3939332d382e3738367a222066696c6c3d2223666666222f3e3c646566733e3c6c696e6561724772616469656e742069643d2242222078313d2230222079313d2230222078323d22323730222079323d2232373022206772616469656e74556e6974733d227573657253706163654f6e557365223e3c73746f702073746f702d636f6c6f723d2223636235656565222f3e3c73746f70206f66667365743d2231222073746f702d636f6c6f723d2223306364376534222073746f702d6f7061636974793d222e3939222f3e3c2f6c696e6561724772616469656e743e3c2f646566733e3c7465787420783d2233322e352220793d223233312220666f6e742d73697a653d223237222066696c6c3d2223666666222066696c7465723d2275726c282341292220666f6e742d66616d696c793d22506c7573204a616b617274612053616e732c44656a6156752053616e732c4e6f746f20436f6c6f7220456d6f6a692c4170706c6520436f6c6f7220456d6f6a692c73616e732d73657269662220666f6e742d7765696768743d22626f6c64223e",
  "linkReferences": {},
  "deployedLinkReferences": {}
}